{
  "_format": "hh-sol-artifact-1",
  "contractName": "EmeraldNtf",
  "sourceName": "contracts/EmeraldNtf.sol",
  "abi": [
    {
      "inputs": [],
      "stateMutability": "nonpayable",
      "type": "constructor"
    },
    {
      "anonymous": false,
      "inputs": [
        {
          "indexed": true,
          "internalType": "address",
          "name": "owner",
          "type": "address"
        },
        {
          "indexed": true,
          "internalType": "address",
          "name": "approved",
          "type": "address"
        },
        {
          "indexed": true,
          "internalType": "uint256",
          "name": "tokenId",
          "type": "uint256"
        }
      ],
      "name": "Approval",
      "type": "event"
    },
    {
      "anonymous": false,
      "inputs": [
        {
          "indexed": true,
          "internalType": "address",
          "name": "owner",
          "type": "address"
        },
        {
          "indexed": true,
          "internalType": "address",
          "name": "operator",
          "type": "address"
        },
        {
          "indexed": false,
          "internalType": "bool",
          "name": "approved",
          "type": "bool"
        }
      ],
      "name": "ApprovalForAll",
      "type": "event"
    },
    {
      "anonymous": false,
      "inputs": [
        {
          "indexed": true,
          "internalType": "uint256",
          "name": "tokenId",
          "type": "uint256"
        }
      ],
      "name": "EmrMinted",
      "type": "event"
    },
    {
      "anonymous": false,
      "inputs": [
        {
          "indexed": true,
          "internalType": "address",
          "name": "from",
          "type": "address"
        },
        {
          "indexed": true,
          "internalType": "address",
          "name": "to",
          "type": "address"
        },
        {
          "indexed": true,
          "internalType": "uint256",
          "name": "tokenId",
          "type": "uint256"
        }
      ],
      "name": "Transfer",
      "type": "event"
    },
    {
      "inputs": [
        {
          "internalType": "address",
          "name": "to",
          "type": "address"
        },
        {
          "internalType": "uint256",
          "name": "tokenId",
          "type": "uint256"
        }
      ],
      "name": "approve",
      "outputs": [],
      "stateMutability": "nonpayable",
      "type": "function"
    },
    {
      "inputs": [
        {
          "internalType": "address",
          "name": "owner",
          "type": "address"
        }
      ],
      "name": "balanceOf",
      "outputs": [
        {
          "internalType": "uint256",
          "name": "",
          "type": "uint256"
        }
      ],
      "stateMutability": "view",
      "type": "function"
    },
    {
      "inputs": [
        {
          "internalType": "uint256",
          "name": "tokenId",
          "type": "uint256"
        }
      ],
      "name": "getApproved",
      "outputs": [
        {
          "internalType": "address",
          "name": "",
          "type": "address"
        }
      ],
      "stateMutability": "view",
      "type": "function"
    },
    {
      "inputs": [
        {
          "internalType": "address",
          "name": "spender",
          "type": "address"
        },
        {
          "internalType": "uint256",
          "name": "tokenId",
          "type": "uint256"
        }
      ],
      "name": "isApproved",
      "outputs": [
        {
          "internalType": "bool",
          "name": "",
          "type": "bool"
        }
      ],
      "stateMutability": "view",
      "type": "function"
    },
    {
      "inputs": [
        {
          "internalType": "address",
          "name": "owner",
          "type": "address"
        },
        {
          "internalType": "address",
          "name": "operator",
          "type": "address"
        }
      ],
      "name": "isApprovedForAll",
      "outputs": [
        {
          "internalType": "bool",
          "name": "",
          "type": "bool"
        }
      ],
      "stateMutability": "view",
      "type": "function"
    },
    {
      "inputs": [
        {
          "internalType": "address",
          "name": "recipient",
          "type": "address"
        },
        {
          "internalType": "string",
          "name": "tokenURI",
          "type": "string"
        }
      ],
      "name": "mintNft",
      "outputs": [
        {
          "internalType": "uint256",
          "name": "",
          "type": "uint256"
        }
      ],
      "stateMutability": "nonpayable",
      "type": "function"
    },
    {
      "inputs": [],
      "name": "name",
      "outputs": [
        {
          "internalType": "string",
          "name": "",
          "type": "string"
        }
      ],
      "stateMutability": "view",
      "type": "function"
    },
    {
      "inputs": [
        {
          "internalType": "uint256",
          "name": "tokenId",
          "type": "uint256"
        }
      ],
      "name": "ownerOf",
      "outputs": [
        {
          "internalType": "address",
          "name": "",
          "type": "address"
        }
      ],
      "stateMutability": "view",
      "type": "function"
    },
    {
      "inputs": [
        {
          "internalType": "address",
          "name": "from",
          "type": "address"
        },
        {
          "internalType": "address",
          "name": "to",
          "type": "address"
        },
        {
          "internalType": "uint256",
          "name": "tokenId",
          "type": "uint256"
        }
      ],
      "name": "safeTransferFrom",
      "outputs": [],
      "stateMutability": "nonpayable",
      "type": "function"
    },
    {
      "inputs": [
        {
          "internalType": "address",
          "name": "from",
          "type": "address"
        },
        {
          "internalType": "address",
          "name": "to",
          "type": "address"
        },
        {
          "internalType": "uint256",
          "name": "tokenId",
          "type": "uint256"
        },
        {
          "internalType": "bytes",
          "name": "data",
          "type": "bytes"
        }
      ],
      "name": "safeTransferFrom",
      "outputs": [],
      "stateMutability": "nonpayable",
      "type": "function"
    },
    {
      "inputs": [
        {
          "internalType": "address",
          "name": "operator",
          "type": "address"
        },
        {
          "internalType": "bool",
          "name": "approved",
          "type": "bool"
        }
      ],
      "name": "setApprovalForAll",
      "outputs": [],
      "stateMutability": "nonpayable",
      "type": "function"
    },
    {
      "inputs": [
        {
          "internalType": "bytes4",
          "name": "interfaceId",
          "type": "bytes4"
        }
      ],
      "name": "supportsInterface",
      "outputs": [
        {
          "internalType": "bool",
          "name": "",
          "type": "bool"
        }
      ],
      "stateMutability": "view",
      "type": "function"
    },
    {
      "inputs": [],
      "name": "symbol",
      "outputs": [
        {
          "internalType": "string",
          "name": "",
          "type": "string"
        }
      ],
      "stateMutability": "view",
      "type": "function"
    },
    {
      "inputs": [
        {
          "internalType": "uint256",
          "name": "tokenId",
          "type": "uint256"
        }
      ],
      "name": "tokenURI",
      "outputs": [
        {
          "internalType": "string",
          "name": "",
          "type": "string"
        }
      ],
      "stateMutability": "view",
      "type": "function"
    },
    {
      "inputs": [
        {
          "internalType": "address",
          "name": "from",
          "type": "address"
        },
        {
          "internalType": "address",
          "name": "to",
          "type": "address"
        },
        {
          "internalType": "uint256",
          "name": "tokenId",
          "type": "uint256"
        }
      ],
      "name": "transferFrom",
      "outputs": [],
      "stateMutability": "nonpayable",
      "type": "function"
    }
  ],
  "bytecode": "0x60806040523480156200001157600080fd5b506040518060400160405280600781526020017f456d6572616c64000000000000000000000000000000000000000000000000008152506040518060400160405280600381526020017f454d52000000000000000000000000000000000000000000000000000000000081525081600090816200008f919062000324565b508060019081620000a1919062000324565b5050506200040b565b600081519050919050565b7f4e487b7100000000000000000000000000000000000000000000000000000000600052604160045260246000fd5b7f4e487b7100000000000000000000000000000000000000000000000000000000600052602260045260246000fd5b600060028204905060018216806200012c57607f821691505b602082108103620001425762000141620000e4565b5b50919050565b60008190508160005260206000209050919050565b60006020601f8301049050919050565b600082821b905092915050565b600060088302620001ac7fffffffffffffffffffffffffffffffffffffffffffffffffffffffffffffffff826200016d565b620001b886836200016d565b95508019841693508086168417925050509392505050565b6000819050919050565b6000819050919050565b600062000205620001ff620001f984620001d0565b620001da565b620001d0565b9050919050565b6000819050919050565b6200022183620001e4565b6200023962000230826200020c565b8484546200017a565b825550505050565b600090565b6200025062000241565b6200025d81848462000216565b505050565b5b8181101562000285576200027960008262000246565b60018101905062000263565b5050565b601f821115620002d4576200029e8162000148565b620002a9846200015d565b81016020851015620002b9578190505b620002d1620002c8856200015d565b83018262000262565b50505b505050565b600082821c905092915050565b6000620002f960001984600802620002d9565b1980831691505092915050565b6000620003148383620002e6565b9150826002028217905092915050565b6200032f82620000aa565b67ffffffffffffffff8111156200034b576200034a620000b5565b5b62000357825462000113565b6200036482828562000289565b600060209050601f8311600181146200039c576000841562000387578287015190505b62000393858262000306565b86555062000403565b601f198416620003ac8662000148565b60005b82811015620003d657848901518255600182019150602085019450602081019050620003af565b86831015620003f65784890151620003f2601f891682620002e6565b8355505b6001600288020188555050505b505050505050565b612b10806200041b6000396000f3fe608060405234801561001057600080fd5b50600436106100f55760003560e01c806342842e0e11610097578063a22cb46511610066578063a22cb465146102aa578063b88d4fde146102c6578063c87b56dd146102e2578063e985e9c514610312576100f5565b806342842e0e146102105780636352211e1461022c57806370a082311461025c57806395d89b411461028c576100f5565b8063095ea7b3116100d3578063095ea7b31461017857806311f87b191461019457806323b872dd146101c45780632a16cca4146101e0576100f5565b806301ffc9a7146100fa57806306fdde031461012a578063081812fc14610148575b600080fd5b610114600480360381019061010f91906119ff565b610342565b6040516101219190611a47565b60405180910390f35b610132610424565b60405161013f9190611af2565b60405180910390f35b610162600480360381019061015d9190611b4a565b6104b6565b60405161016f9190611bb8565b60405180910390f35b610192600480360381019061018d9190611bff565b6104fc565b005b6101ae60048036038101906101a99190611d74565b610613565b6040516101bb9190611ddf565b60405180910390f35b6101de60048036038101906101d99190611dfa565b61064b565b005b6101fa60048036038101906101f59190611bff565b6106ab565b6040516102079190611a47565b60405180910390f35b61022a60048036038101906102259190611dfa565b6106bf565b005b61024660048036038101906102419190611b4a565b6106df565b6040516102539190611bb8565b60405180910390f35b61027660048036038101906102719190611e4d565b610765565b6040516102839190611ddf565b60405180910390f35b61029461081c565b6040516102a19190611af2565b60405180910390f35b6102c460048036038101906102bf9190611ea6565b6108ae565b005b6102e060048036038101906102db9190611f87565b6108c4565b005b6102fc60048036038101906102f79190611b4a565b610926565b6040516103099190611af2565b60405180910390f35b61032c6004803603810190610327919061200a565b610a38565b6040516103399190611a47565b60405180910390f35b60007f80ac58cd000000000000000000000000000000000000000000000000000000007bffffffffffffffffffffffffffffffffffffffffffffffffffffffff1916827bffffffffffffffffffffffffffffffffffffffffffffffffffffffff1916148061040d57507f5b5e139f000000000000000000000000000000000000000000000000000000007bffffffffffffffffffffffffffffffffffffffffffffffffffffffff1916827bffffffffffffffffffffffffffffffffffffffffffffffffffffffff1916145b8061041d575061041c82610acc565b5b9050919050565b60606000805461043390612079565b80601f016020809104026020016040519081016040528092919081815260200182805461045f90612079565b80156104ac5780601f10610481576101008083540402835291602001916104ac565b820191906000526020600020905b81548152906001019060200180831161048f57829003601f168201915b5050505050905090565b60006104c182610b36565b6004600083815260200190815260200160002060009054906101000a900473ffffffffffffffffffffffffffffffffffffffff169050919050565b6000610507826106df565b90508073ffffffffffffffffffffffffffffffffffffffff168373ffffffffffffffffffffffffffffffffffffffff1603610577576040517f08c379a000000000000000000000000000000000000000000000000000000000815260040161056e9061211c565b60405180910390fd5b8073ffffffffffffffffffffffffffffffffffffffff16610596610b81565b73ffffffffffffffffffffffffffffffffffffffff1614806105c557506105c4816105bf610b81565b610a38565b5b610604576040517f08c379a00000000000000000000000000000000000000000000000000000000081526004016105fb906121ae565b60405180910390fd5b61060e8383610b89565b505050565b600061061f6007610c42565b600061062b6007610c58565b90506106378482610c66565b6106418184610c84565b8091505092915050565b61065c610656610b81565b82610cf1565b61069b576040517f08c379a000000000000000000000000000000000000000000000000000000000815260040161069290612240565b60405180910390fd5b6106a6838383610d86565b505050565b60006106b78383610cf1565b905092915050565b6106da838383604051806020016040528060008152506108c4565b505050565b6000806106eb8361107f565b9050600073ffffffffffffffffffffffffffffffffffffffff168173ffffffffffffffffffffffffffffffffffffffff160361075c576040517f08c379a0000000000000000000000000000000000000000000000000000000008152600401610753906122ac565b60405180910390fd5b80915050919050565b60008073ffffffffffffffffffffffffffffffffffffffff168273ffffffffffffffffffffffffffffffffffffffff16036107d5576040517f08c379a00000000000000000000000000000000000000000000000000000000081526004016107cc9061233e565b60405180910390fd5b600360008373ffffffffffffffffffffffffffffffffffffffff1673ffffffffffffffffffffffffffffffffffffffff168152602001908152602001600020549050919050565b60606001805461082b90612079565b80601f016020809104026020016040519081016040528092919081815260200182805461085790612079565b80156108a45780601f10610879576101008083540402835291602001916108a4565b820191906000526020600020905b81548152906001019060200180831161088757829003601f168201915b5050505050905090565b6108c06108b9610b81565b83836110bc565b5050565b6108d56108cf610b81565b83610cf1565b610914576040517f08c379a000000000000000000000000000000000000000000000000000000000815260040161090b90612240565b60405180910390fd5b61092084848484611228565b50505050565b606061093182610b36565b600060066000848152602001908152602001600020805461095190612079565b80601f016020809104026020016040519081016040528092919081815260200182805461097d90612079565b80156109ca5780601f1061099f576101008083540402835291602001916109ca565b820191906000526020600020905b8154815290600101906020018083116109ad57829003601f168201915b5050505050905060006109db611284565b905060008151036109f0578192505050610a33565b600082511115610a25578082604051602001610a0d92919061239a565b60405160208183030381529060405292505050610a33565b610a2e8461129b565b925050505b919050565b6000600560008473ffffffffffffffffffffffffffffffffffffffff1673ffffffffffffffffffffffffffffffffffffffff16815260200190815260200160002060008373ffffffffffffffffffffffffffffffffffffffff1673ffffffffffffffffffffffffffffffffffffffff16815260200190815260200160002060009054906101000a900460ff16905092915050565b60007f01ffc9a7000000000000000000000000000000000000000000000000000000007bffffffffffffffffffffffffffffffffffffffffffffffffffffffff1916827bffffffffffffffffffffffffffffffffffffffffffffffffffffffff1916149050919050565b610b3f81611303565b610b7e576040517f08c379a0000000000000000000000000000000000000000000000000000000008152600401610b75906122ac565b60405180910390fd5b50565b600033905090565b816004600083815260200190815260200160002060006101000a81548173ffffffffffffffffffffffffffffffffffffffff021916908373ffffffffffffffffffffffffffffffffffffffff160217905550808273ffffffffffffffffffffffffffffffffffffffff16610bfc836106df565b73ffffffffffffffffffffffffffffffffffffffff167f8c5be1e5ebec7d5bd14f71427d1e84f3dd0314c0f7b2291e5b200ac8c7c3b92560405160405180910390a45050565b6001816000016000828254019250508190555050565b600081600001549050919050565b610c80828260405180602001604052806000815250611344565b5050565b610c8d82611303565b610ccc576040517f08c379a0000000000000000000000000000000000000000000000000000000008152600401610cc390612430565b60405180910390fd5b80600660008481526020019081526020016000209081610cec91906125fc565b505050565b600080610cfd836106df565b90508073ffffffffffffffffffffffffffffffffffffffff168473ffffffffffffffffffffffffffffffffffffffff161480610d3f5750610d3e8185610a38565b5b80610d7d57508373ffffffffffffffffffffffffffffffffffffffff16610d65846104b6565b73ffffffffffffffffffffffffffffffffffffffff16145b91505092915050565b8273ffffffffffffffffffffffffffffffffffffffff16610da6826106df565b73ffffffffffffffffffffffffffffffffffffffff1614610dfc576040517f08c379a0000000000000000000000000000000000000000000000000000000008152600401610df390612740565b60405180910390fd5b600073ffffffffffffffffffffffffffffffffffffffff168273ffffffffffffffffffffffffffffffffffffffff1603610e6b576040517f08c379a0000000000000000000000000000000000000000000000000000000008152600401610e62906127d2565b60405180910390fd5b610e78838383600161139f565b8273ffffffffffffffffffffffffffffffffffffffff16610e98826106df565b73ffffffffffffffffffffffffffffffffffffffff1614610eee576040517f08c379a0000000000000000000000000000000000000000000000000000000008152600401610ee590612740565b60405180910390fd5b6004600082815260200190815260200160002060006101000a81549073ffffffffffffffffffffffffffffffffffffffff02191690556001600360008573ffffffffffffffffffffffffffffffffffffffff1673ffffffffffffffffffffffffffffffffffffffff168152602001908152602001600020600082825403925050819055506001600360008473ffffffffffffffffffffffffffffffffffffffff1673ffffffffffffffffffffffffffffffffffffffff16815260200190815260200160002060008282540192505081905550816002600083815260200190815260200160002060006101000a81548173ffffffffffffffffffffffffffffffffffffffff021916908373ffffffffffffffffffffffffffffffffffffffff160217905550808273ffffffffffffffffffffffffffffffffffffffff168473ffffffffffffffffffffffffffffffffffffffff167fddf252ad1be2c89b69c2b068fc378daa952ba7f163c4a11628f55a4df523b3ef60405160405180910390a461107a83838360016113a5565b505050565b60006002600083815260200190815260200160002060009054906101000a900473ffffffffffffffffffffffffffffffffffffffff169050919050565b8173ffffffffffffffffffffffffffffffffffffffff168373ffffffffffffffffffffffffffffffffffffffff160361112a576040517f08c379a00000000000000000000000000000000000000000000000000000000081526004016111219061283e565b60405180910390fd5b80600560008573ffffffffffffffffffffffffffffffffffffffff1673ffffffffffffffffffffffffffffffffffffffff16815260200190815260200160002060008473ffffffffffffffffffffffffffffffffffffffff1673ffffffffffffffffffffffffffffffffffffffff16815260200190815260200160002060006101000a81548160ff0219169083151502179055508173ffffffffffffffffffffffffffffffffffffffff168373ffffffffffffffffffffffffffffffffffffffff167f17307eab39ab6107e8899845ad3d59bd9653f200f220920489ca2b5937696c318360405161121b9190611a47565b60405180910390a3505050565b611233848484610d86565b61123f848484846113ab565b61127e576040517f08c379a0000000000000000000000000000000000000000000000000000000008152600401611275906128d0565b60405180910390fd5b50505050565b606060405180602001604052806000815250905090565b60606112a682610b36565b60006112b0611284565b905060008151116112d057604051806020016040528060008152506112fb565b806112da84611532565b6040516020016112eb92919061239a565b6040516020818303038152906040525b915050919050565b60008073ffffffffffffffffffffffffffffffffffffffff166113258361107f565b73ffffffffffffffffffffffffffffffffffffffff1614159050919050565b61134e8383611600565b61135b60008484846113ab565b61139a576040517f08c379a0000000000000000000000000000000000000000000000000000000008152600401611391906128d0565b60405180910390fd5b505050565b50505050565b50505050565b60006113cc8473ffffffffffffffffffffffffffffffffffffffff1661181d565b15611525578373ffffffffffffffffffffffffffffffffffffffff1663150b7a026113f5610b81565b8786866040518563ffffffff1660e01b81526004016114179493929190612945565b6020604051808303816000875af192505050801561145357506040513d601f19601f8201168201806040525081019061145091906129a6565b60015b6114d5573d8060008114611483576040519150601f19603f3d011682016040523d82523d6000602084013e611488565b606091505b5060008151036114cd576040517f08c379a00000000000000000000000000000000000000000000000000000000081526004016114c4906128d0565b60405180910390fd5b805181602001fd5b63150b7a0260e01b7bffffffffffffffffffffffffffffffffffffffffffffffffffffffff1916817bffffffffffffffffffffffffffffffffffffffffffffffffffffffff19161491505061152a565b600190505b949350505050565b60606000600161154184611840565b01905060008167ffffffffffffffff8111156115605761155f611c49565b5b6040519080825280601f01601f1916602001820160405280156115925781602001600182028036833780820191505090505b509050600082602001820190505b6001156115f5578080600190039150507f3031323334353637383961626364656600000000000000000000000000000000600a86061a8153600a85816115e9576115e86129d3565b5b049450600085036115a0575b819350505050919050565b600073ffffffffffffffffffffffffffffffffffffffff168273ffffffffffffffffffffffffffffffffffffffff160361166f576040517f08c379a000000000000000000000000000000000000000000000000000000000815260040161166690612a4e565b60405180910390fd5b61167881611303565b156116b8576040517f08c379a00000000000000000000000000000000000000000000000000000000081526004016116af90612aba565b60405180910390fd5b6116c660008383600161139f565b6116cf81611303565b1561170f576040517f08c379a000000000000000000000000000000000000000000000000000000000815260040161170690612aba565b60405180910390fd5b6001600360008473ffffffffffffffffffffffffffffffffffffffff1673ffffffffffffffffffffffffffffffffffffffff16815260200190815260200160002060008282540192505081905550816002600083815260200190815260200160002060006101000a81548173ffffffffffffffffffffffffffffffffffffffff021916908373ffffffffffffffffffffffffffffffffffffffff160217905550808273ffffffffffffffffffffffffffffffffffffffff16600073ffffffffffffffffffffffffffffffffffffffff167fddf252ad1be2c89b69c2b068fc378daa952ba7f163c4a11628f55a4df523b3ef60405160405180910390a46118196000838360016113a5565b5050565b6000808273ffffffffffffffffffffffffffffffffffffffff163b119050919050565b600080600090507a184f03e93ff9f4daa797ed6e38ed64bf6a1f010000000000000000831061189e577a184f03e93ff9f4daa797ed6e38ed64bf6a1f0100000000000000008381611894576118936129d3565b5b0492506040810190505b6d04ee2d6d415b85acef810000000083106118db576d04ee2d6d415b85acef810000000083816118d1576118d06129d3565b5b0492506020810190505b662386f26fc10000831061190a57662386f26fc100008381611900576118ff6129d3565b5b0492506010810190505b6305f5e1008310611933576305f5e1008381611929576119286129d3565b5b0492506008810190505b612710831061195857612710838161194e5761194d6129d3565b5b0492506004810190505b6064831061197b5760648381611971576119706129d3565b5b0492506002810190505b600a831061198a576001810190505b80915050919050565b6000604051905090565b600080fd5b600080fd5b60007fffffffff0000000000000000000000000000000000000000000000000000000082169050919050565b6119dc816119a7565b81146119e757600080fd5b50565b6000813590506119f9816119d3565b92915050565b600060208284031215611a1557611a1461199d565b5b6000611a23848285016119ea565b91505092915050565b60008115159050919050565b611a4181611a2c565b82525050565b6000602082019050611a5c6000830184611a38565b92915050565b600081519050919050565b600082825260208201905092915050565b60005b83811015611a9c578082015181840152602081019050611a81565b60008484015250505050565b6000601f19601f8301169050919050565b6000611ac482611a62565b611ace8185611a6d565b9350611ade818560208601611a7e565b611ae781611aa8565b840191505092915050565b60006020820190508181036000830152611b0c8184611ab9565b905092915050565b6000819050919050565b611b2781611b14565b8114611b3257600080fd5b50565b600081359050611b4481611b1e565b92915050565b600060208284031215611b6057611b5f61199d565b5b6000611b6e84828501611b35565b91505092915050565b600073ffffffffffffffffffffffffffffffffffffffff82169050919050565b6000611ba282611b77565b9050919050565b611bb281611b97565b82525050565b6000602082019050611bcd6000830184611ba9565b92915050565b611bdc81611b97565b8114611be757600080fd5b50565b600081359050611bf981611bd3565b92915050565b60008060408385031215611c1657611c1561199d565b5b6000611c2485828601611bea565b9250506020611c3585828601611b35565b9150509250929050565b600080fd5b600080fd5b7f4e487b7100000000000000000000000000000000000000000000000000000000600052604160045260246000fd5b611c8182611aa8565b810181811067ffffffffffffffff82111715611ca057611c9f611c49565b5b80604052505050565b6000611cb3611993565b9050611cbf8282611c78565b919050565b600067ffffffffffffffff821115611cdf57611cde611c49565b5b611ce882611aa8565b9050602081019050919050565b82818337600083830152505050565b6000611d17611d1284611cc4565b611ca9565b905082815260208101848484011115611d3357611d32611c44565b5b611d3e848285611cf5565b509392505050565b600082601f830112611d5b57611d5a611c3f565b5b8135611d6b848260208601611d04565b91505092915050565b60008060408385031215611d8b57611d8a61199d565b5b6000611d9985828601611bea565b925050602083013567ffffffffffffffff811115611dba57611db96119a2565b5b611dc685828601611d46565b9150509250929050565b611dd981611b14565b82525050565b6000602082019050611df46000830184611dd0565b92915050565b600080600060608486031215611e1357611e1261199d565b5b6000611e2186828701611bea565b9350506020611e3286828701611bea565b9250506040611e4386828701611b35565b9150509250925092565b600060208284031215611e6357611e6261199d565b5b6000611e7184828501611bea565b91505092915050565b611e8381611a2c565b8114611e8e57600080fd5b50565b600081359050611ea081611e7a565b92915050565b60008060408385031215611ebd57611ebc61199d565b5b6000611ecb85828601611bea565b9250506020611edc85828601611e91565b9150509250929050565b600067ffffffffffffffff821115611f0157611f00611c49565b5b611f0a82611aa8565b9050602081019050919050565b6000611f2a611f2584611ee6565b611ca9565b905082815260208101848484011115611f4657611f45611c44565b5b611f51848285611cf5565b509392505050565b600082601f830112611f6e57611f6d611c3f565b5b8135611f7e848260208601611f17565b91505092915050565b60008060008060808587031215611fa157611fa061199d565b5b6000611faf87828801611bea565b9450506020611fc087828801611bea565b9350506040611fd187828801611b35565b925050606085013567ffffffffffffffff811115611ff257611ff16119a2565b5b611ffe87828801611f59565b91505092959194509250565b600080604083850312156120215761202061199d565b5b600061202f85828601611bea565b925050602061204085828601611bea565b9150509250929050565b7f4e487b7100000000000000000000000000000000000000000000000000000000600052602260045260246000fd5b6000600282049050600182168061209157607f821691505b6020821081036120a4576120a361204a565b5b50919050565b7f4552433732313a20617070726f76616c20746f2063757272656e74206f776e6560008201527f7200000000000000000000000000000000000000000000000000000000000000602082015250565b6000612106602183611a6d565b9150612111826120aa565b604082019050919050565b60006020820190508181036000830152612135816120f9565b9050919050565b7f4552433732313a20617070726f76652063616c6c6572206973206e6f7420746f60008201527f6b656e206f776e6572206f7220617070726f76656420666f7220616c6c000000602082015250565b6000612198603d83611a6d565b91506121a38261213c565b604082019050919050565b600060208201905081810360008301526121c78161218b565b9050919050565b7f4552433732313a2063616c6c6572206973206e6f7420746f6b656e206f776e6560008201527f72206f7220617070726f76656400000000000000000000000000000000000000602082015250565b600061222a602d83611a6d565b9150612235826121ce565b604082019050919050565b600060208201905081810360008301526122598161221d565b9050919050565b7f4552433732313a20696e76616c696420746f6b656e2049440000000000000000600082015250565b6000612296601883611a6d565b91506122a182612260565b602082019050919050565b600060208201905081810360008301526122c581612289565b9050919050565b7f4552433732313a2061646472657373207a65726f206973206e6f74206120766160008201527f6c6964206f776e65720000000000000000000000000000000000000000000000602082015250565b6000612328602983611a6d565b9150612333826122cc565b604082019050919050565b600060208201905081810360008301526123578161231b565b9050919050565b600081905092915050565b600061237482611a62565b61237e818561235e565b935061238e818560208601611a7e565b80840191505092915050565b60006123a68285612369565b91506123b28284612369565b91508190509392505050565b7f45524337323155524953746f726167653a2055524920736574206f66206e6f6e60008201527f6578697374656e7420746f6b656e000000000000000000000000000000000000602082015250565b600061241a602e83611a6d565b9150612425826123be565b604082019050919050565b600060208201905081810360008301526124498161240d565b9050919050565b60008190508160005260206000209050919050565b60006020601f8301049050919050565b600082821b905092915050565b6000600883026124b27fffffffffffffffffffffffffffffffffffffffffffffffffffffffffffffffff82612475565b6124bc8683612475565b95508019841693508086168417925050509392505050565b6000819050919050565b60006124f96124f46124ef84611b14565b6124d4565b611b14565b9050919050565b6000819050919050565b612513836124de565b61252761251f82612500565b848454612482565b825550505050565b600090565b61253c61252f565b61254781848461250a565b505050565b5b8181101561256b57612560600082612534565b60018101905061254d565b5050565b601f8211156125b05761258181612450565b61258a84612465565b81016020851015612599578190505b6125ad6125a585612465565b83018261254c565b50505b505050565b600082821c905092915050565b60006125d3600019846008026125b5565b1980831691505092915050565b60006125ec83836125c2565b9150826002028217905092915050565b61260582611a62565b67ffffffffffffffff81111561261e5761261d611c49565b5b6126288254612079565b61263382828561256f565b600060209050601f8311600181146126665760008415612654578287015190505b61265e85826125e0565b8655506126c6565b601f19841661267486612450565b60005b8281101561269c57848901518255600182019150602085019450602081019050612677565b868310156126b957848901516126b5601f8916826125c2565b8355505b6001600288020188555050505b505050505050565b7f4552433732313a207472616e736665722066726f6d20696e636f72726563742060008201527f6f776e6572000000000000000000000000000000000000000000000000000000602082015250565b600061272a602583611a6d565b9150612735826126ce565b604082019050919050565b600060208201905081810360008301526127598161271d565b9050919050565b7f4552433732313a207472616e7366657220746f20746865207a65726f2061646460008201527f7265737300000000000000000000000000000000000000000000000000000000602082015250565b60006127bc602483611a6d565b91506127c782612760565b604082019050919050565b600060208201905081810360008301526127eb816127af565b9050919050565b7f4552433732313a20617070726f766520746f2063616c6c657200000000000000600082015250565b6000612828601983611a6d565b9150612833826127f2565b602082019050919050565b600060208201905081810360008301526128578161281b565b9050919050565b7f4552433732313a207472616e7366657220746f206e6f6e20455243373231526560008201527f63656976657220696d706c656d656e7465720000000000000000000000000000602082015250565b60006128ba603283611a6d565b91506128c58261285e565b604082019050919050565b600060208201905081810360008301526128e9816128ad565b9050919050565b600081519050919050565b600082825260208201905092915050565b6000612917826128f0565b61292181856128fb565b9350612931818560208601611a7e565b61293a81611aa8565b840191505092915050565b600060808201905061295a6000830187611ba9565b6129676020830186611ba9565b6129746040830185611dd0565b8181036060830152612986818461290c565b905095945050505050565b6000815190506129a0816119d3565b92915050565b6000602082840312156129bc576129bb61199d565b5b60006129ca84828501612991565b91505092915050565b7f4e487b7100000000000000000000000000000000000000000000000000000000600052601260045260246000fd5b7f4552433732313a206d696e7420746f20746865207a65726f2061646472657373600082015250565b6000612a38602083611a6d565b9150612a4382612a02565b602082019050919050565b60006020820190508181036000830152612a6781612a2b565b9050919050565b7f4552433732313a20746f6b656e20616c7265616479206d696e74656400000000600082015250565b6000612aa4601c83611a6d565b9150612aaf82612a6e565b602082019050919050565b60006020820190508181036000830152612ad381612a97565b905091905056fea26469706673582212205ca12086ab0afd07a452b217caa51b72a96be70b4cbf0d14af4d2e9e3ecc8cce64736f6c63430008120033",
  "linkReferences": {},
  "deployedLinkReferences": {}
}