{
  "_format": "hh-sol-artifact-1",
  "contractName": "EmeraldMarket",
  "sourceName": "contracts/EmeraldMarket.sol",
  "abi": [
    {
      "inputs": [],
      "stateMutability": "nonpayable",
      "type": "constructor"
    },
    {
      "anonymous": false,
      "inputs": [
        {
          "indexed": true,
          "internalType": "address",
          "name": "buyer",
          "type": "address"
        },
        {
          "indexed": true,
          "internalType": "address",
          "name": "nftAddress",
          "type": "address"
        },
        {
          "indexed": true,
          "internalType": "uint256",
          "name": "tokenId",
          "type": "uint256"
        },
        {
          "indexed": false,
          "internalType": "uint256",
          "name": "price",
          "type": "uint256"
        }
      ],
      "name": "ItemBought",
      "type": "event"
    },
    {
      "anonymous": false,
      "inputs": [
        {
          "indexed": true,
          "internalType": "address",
          "name": "seller",
          "type": "address"
        },
        {
          "indexed": true,
          "internalType": "address",
          "name": "nftAddress",
          "type": "address"
        },
        {
          "indexed": true,
          "internalType": "uint256",
          "name": "tokenId",
          "type": "uint256"
        }
      ],
      "name": "ItemCanceled",
      "type": "event"
    },
    {
      "anonymous": false,
      "inputs": [
        {
          "indexed": true,
          "internalType": "address",
          "name": "seller",
          "type": "address"
        },
        {
          "indexed": true,
          "internalType": "address",
          "name": "nftAddress",
          "type": "address"
        },
        {
          "indexed": true,
          "internalType": "uint256",
          "name": "tokenId",
          "type": "uint256"
        },
        {
          "indexed": false,
          "internalType": "uint256",
          "name": "price",
          "type": "uint256"
        }
      ],
      "name": "ItemListed",
      "type": "event"
    },
    {
      "inputs": [
        {
          "internalType": "address",
          "name": "nftAddress",
          "type": "address"
        },
        {
          "internalType": "uint256",
          "name": "tokenId",
          "type": "uint256"
        }
      ],
      "name": "buyItem",
      "outputs": [],
      "stateMutability": "payable",
      "type": "function"
    },
    {
      "inputs": [
        {
          "internalType": "address",
          "name": "nftAddress",
          "type": "address"
        },
        {
          "internalType": "uint256",
          "name": "tokenId",
          "type": "uint256"
        }
      ],
      "name": "cancelListing",
      "outputs": [],
      "stateMutability": "nonpayable",
      "type": "function"
    },
    {
      "inputs": [],
      "name": "getAllListing",
      "outputs": [
        {
          "components": [
            {
              "internalType": "uint256",
              "name": "tokenId",
              "type": "uint256"
            },
            {
              "internalType": "address",
              "name": "owner",
              "type": "address"
            },
            {
              "internalType": "address",
              "name": "seller",
              "type": "address"
            },
            {
              "internalType": "uint256",
              "name": "price",
              "type": "uint256"
            },
            {
              "internalType": "bool",
              "name": "currentlyListed",
              "type": "bool"
            }
          ],
          "internalType": "struct EmeraldMarket.ListedToken[]",
          "name": "",
          "type": "tuple[]"
        }
      ],
      "stateMutability": "view",
      "type": "function"
    },
    {
      "inputs": [
        {
          "internalType": "uint256",
          "name": "tokenId",
          "type": "uint256"
        }
      ],
      "name": "getListing",
      "outputs": [
        {
          "components": [
            {
              "internalType": "uint256",
              "name": "tokenId",
              "type": "uint256"
            },
            {
              "internalType": "address",
              "name": "owner",
              "type": "address"
            },
            {
              "internalType": "address",
              "name": "seller",
              "type": "address"
            },
            {
              "internalType": "uint256",
              "name": "price",
              "type": "uint256"
            },
            {
              "internalType": "bool",
              "name": "currentlyListed",
              "type": "bool"
            }
          ],
          "internalType": "struct EmeraldMarket.ListedToken",
          "name": "",
          "type": "tuple"
        }
      ],
      "stateMutability": "view",
      "type": "function"
    },
    {
      "inputs": [
        {
          "internalType": "address",
          "name": "seller",
          "type": "address"
        }
      ],
      "name": "getProceeds",
      "outputs": [
        {
          "internalType": "uint256",
          "name": "",
          "type": "uint256"
        }
      ],
      "stateMutability": "view",
      "type": "function"
    },
    {
      "inputs": [
        {
          "internalType": "address",
          "name": "nftAddress",
          "type": "address"
        },
        {
          "internalType": "uint256",
          "name": "tokenId",
          "type": "uint256"
        },
        {
          "internalType": "uint256",
          "name": "price",
          "type": "uint256"
        }
      ],
      "name": "listItem",
      "outputs": [],
      "stateMutability": "nonpayable",
      "type": "function"
    },
    {
      "inputs": [
        {
          "internalType": "address",
          "name": "nftAddress",
          "type": "address"
        },
        {
          "internalType": "uint256",
          "name": "tokenId",
          "type": "uint256"
        },
        {
          "internalType": "uint256",
          "name": "newPrice",
          "type": "uint256"
        }
      ],
      "name": "updateListing",
      "outputs": [],
      "stateMutability": "nonpayable",
      "type": "function"
    },
    {
      "inputs": [
        {
          "internalType": "uint256",
          "name": "amount",
          "type": "uint256"
        }
      ],
      "name": "withdrawProceeds",
      "outputs": [],
      "stateMutability": "nonpayable",
      "type": "function"
    }
  ],
  "bytecode": "0x608060405234801561001057600080fd5b506001600081905550612221806100286000396000f3fe60806040526004361061007b5760003560e01c80639f37092a1161004e5780639f37092a1461014e578063b2ddee061461016a578063d9f1aed914610193578063f772adf1146101bc5761007b565b8063107a274a1461008057806330cfeda9146100bd578063467efe5a146100fa57806389bfd38f14610125575b600080fd5b34801561008c57600080fd5b506100a760048036038101906100a29190611807565b6101e5565b6040516100b49190611907565b60405180910390f35b3480156100c957600080fd5b506100e460048036038101906100df919061194e565b6102ed565b6040516100f1919061198a565b60405180910390f35b34801561010657600080fd5b5061010f610336565b60405161011c9190611abc565b60405180910390f35b34801561013157600080fd5b5061014c60048036038101906101479190611ade565b610526565b005b61016860048036038101906101639190611b31565b610a3f565b005b34801561017657600080fd5b50610191600480360381019061018c9190611b31565b610f7c565b005b34801561019f57600080fd5b506101ba60048036038101906101b59190611807565b61124e565b005b3480156101c857600080fd5b506101e360048036038101906101de9190611ade565b611428565b005b6101ed61176f565b600160008381526020019081526020016000206040518060a0016040529081600082015481526020016001820160009054906101000a900473ffffffffffffffffffffffffffffffffffffffff1673ffffffffffffffffffffffffffffffffffffffff1673ffffffffffffffffffffffffffffffffffffffff1681526020016002820160009054906101000a900473ffffffffffffffffffffffffffffffffffffffff1673ffffffffffffffffffffffffffffffffffffffff1673ffffffffffffffffffffffffffffffffffffffff168152602001600382015481526020016004820160009054906101000a900460ff1615151515815250509050919050565b6000600260008373ffffffffffffffffffffffffffffffffffffffff1673ffffffffffffffffffffffffffffffffffffffff168152602001908152602001600020549050919050565b6060600061034460036116f2565b905060008167ffffffffffffffff81111561036257610361611b71565b5b60405190808252806020026020018201604052801561039b57816020015b61038861176f565b8152602001906001900390816103805790505b50905060008080600090505b8481101561051b576001816103bc9190611bcf565b91506000600160008481526020019081526020016000209050600115158160040160009054906101000a900460ff161515036104f857806040518060a0016040529081600082015481526020016001820160009054906101000a900473ffffffffffffffffffffffffffffffffffffffff1673ffffffffffffffffffffffffffffffffffffffff1673ffffffffffffffffffffffffffffffffffffffff1681526020016002820160009054906101000a900473ffffffffffffffffffffffffffffffffffffffff1673ffffffffffffffffffffffffffffffffffffffff1673ffffffffffffffffffffffffffffffffffffffff168152602001600382015481526020016004820160009054906101000a900460ff1615151515815250508585815181106104ec576104eb611c03565b5b60200260200101819052505b6001846105059190611bcf565b935050808061051390611c32565b9150506103a7565b508294505050505090565b81336000600160008481526020019081526020016000206040518060a0016040529081600082015481526020016001820160009054906101000a900473ffffffffffffffffffffffffffffffffffffffff1673ffffffffffffffffffffffffffffffffffffffff1673ffffffffffffffffffffffffffffffffffffffff1681526020016002820160009054906101000a900473ffffffffffffffffffffffffffffffffffffffff1673ffffffffffffffffffffffffffffffffffffffff1673ffffffffffffffffffffffffffffffffffffffff168152602001600382015481526020016004820160009054906101000a900460ff1615151515815250509050600015158160800151151514610670576040517f08c379a000000000000000000000000000000000000000000000000000000000815260040161066790611cd7565b60405180910390fd5b858533600083905060008173ffffffffffffffffffffffffffffffffffffffff16636352211e856040518263ffffffff1660e01b81526004016106b3919061198a565b602060405180830381865afa1580156106d0573d6000803e3d6000fd5b505050506040513d601f19601f820116820180604052508101906106f49190611d0c565b90508073ffffffffffffffffffffffffffffffffffffffff168373ffffffffffffffffffffffffffffffffffffffff1614610764576040517f08c379a000000000000000000000000000000000000000000000000000000000815260040161075b90611d85565b60405180910390fd5b600089116107a7576040517f08c379a000000000000000000000000000000000000000000000000000000000815260040161079e90611df1565b60405180910390fd5b60008b90503073ffffffffffffffffffffffffffffffffffffffff168173ffffffffffffffffffffffffffffffffffffffff1663081812fc8d6040518263ffffffff1660e01b81526004016107fc919061198a565b602060405180830381865afa158015610819573d6000803e3d6000fd5b505050506040513d601f19601f8201168201806040525081019061083d9190611d0c565b73ffffffffffffffffffffffffffffffffffffffff1614610893576040517f08c379a000000000000000000000000000000000000000000000000000000000815260040161088a90611e83565b60405180910390fd5b6040518060a001604052808c81526020013073ffffffffffffffffffffffffffffffffffffffff1681526020013373ffffffffffffffffffffffffffffffffffffffff1681526020018b815260200160011515815250600160008d81526020019081526020016000206000820151816000015560208201518160010160006101000a81548173ffffffffffffffffffffffffffffffffffffffff021916908373ffffffffffffffffffffffffffffffffffffffff16021790555060408201518160020160006101000a81548173ffffffffffffffffffffffffffffffffffffffff021916908373ffffffffffffffffffffffffffffffffffffffff1602179055506060820151816003015560808201518160040160006101000a81548160ff0219169083151502179055509050506109cb6003611700565b8a8c73ffffffffffffffffffffffffffffffffffffffff163373ffffffffffffffffffffffffffffffffffffffff167fd547e933094f12a9159076970143ebe73234e64480317844b0dcb36117116de48d604051610a29919061198a565b60405180910390a4505050505050505050505050565b610a47611716565b806000600160008381526020019081526020016000206040518060a0016040529081600082015481526020016001820160009054906101000a900473ffffffffffffffffffffffffffffffffffffffff1673ffffffffffffffffffffffffffffffffffffffff1673ffffffffffffffffffffffffffffffffffffffff1681526020016002820160009054906101000a900473ffffffffffffffffffffffffffffffffffffffff1673ffffffffffffffffffffffffffffffffffffffff1673ffffffffffffffffffffffffffffffffffffffff168152602001600382015481526020016004820160009054906101000a900460ff1615151515815250509050600115158160800151151514610b90576040517f08c379a0000000000000000000000000000000000000000000000000000000008152600401610b8790611eef565b60405180910390fd5b6000600160008581526020019081526020016000206040518060a0016040529081600082015481526020016001820160009054906101000a900473ffffffffffffffffffffffffffffffffffffffff1673ffffffffffffffffffffffffffffffffffffffff1673ffffffffffffffffffffffffffffffffffffffff1681526020016002820160009054906101000a900473ffffffffffffffffffffffffffffffffffffffff1673ffffffffffffffffffffffffffffffffffffffff1673ffffffffffffffffffffffffffffffffffffffff168152602001600382015481526020016004820160009054906101000a900460ff16151515158152505090508060600151341015610cd4576040517f08c379a0000000000000000000000000000000000000000000000000000000008152600401610ccb90611f5b565b60405180910390fd5b3460026000836040015173ffffffffffffffffffffffffffffffffffffffff1673ffffffffffffffffffffffffffffffffffffffff16815260200190815260200160002054610d239190611bcf565b60026000836040015173ffffffffffffffffffffffffffffffffffffffff1673ffffffffffffffffffffffffffffffffffffffff168152602001908152602001600020819055508473ffffffffffffffffffffffffffffffffffffffff166342842e0e826040015133876040518463ffffffff1660e01b8152600401610dab93929190611f8a565b600060405180830381600087803b158015610dc557600080fd5b505af1158015610dd9573d6000803e3d6000fd5b50505050600081608001901515908115158152505033816040019073ffffffffffffffffffffffffffffffffffffffff16908173ffffffffffffffffffffffffffffffffffffffff16815250508060016000836000015181526020019081526020016000206000820151816000015560208201518160010160006101000a81548173ffffffffffffffffffffffffffffffffffffffff021916908373ffffffffffffffffffffffffffffffffffffffff16021790555060408201518160020160006101000a81548173ffffffffffffffffffffffffffffffffffffffff021916908373ffffffffffffffffffffffffffffffffffffffff1602179055506060820151816003015560808201518160040160006101000a81548160ff021916908315150217905550905050838573ffffffffffffffffffffffffffffffffffffffff163373ffffffffffffffffffffffffffffffffffffffff167f263223b1dd81e51054a4e6f791d45a4a1ddb4aadcd93a2dfd892615c3fdac1878460600151604051610f65919061198a565b60405180910390a4505050610f78611765565b5050565b818133600083905060008173ffffffffffffffffffffffffffffffffffffffff16636352211e856040518263ffffffff1660e01b8152600401610fbf919061198a565b602060405180830381865afa158015610fdc573d6000803e3d6000fd5b505050506040513d601f19601f820116820180604052508101906110009190611d0c565b90508073ffffffffffffffffffffffffffffffffffffffff168373ffffffffffffffffffffffffffffffffffffffff1614611070576040517f08c379a000000000000000000000000000000000000000000000000000000000815260040161106790611d85565b60405180910390fd5b856000600160008381526020019081526020016000206040518060a0016040529081600082015481526020016001820160009054906101000a900473ffffffffffffffffffffffffffffffffffffffff1673ffffffffffffffffffffffffffffffffffffffff1673ffffffffffffffffffffffffffffffffffffffff1681526020016002820160009054906101000a900473ffffffffffffffffffffffffffffffffffffffff1673ffffffffffffffffffffffffffffffffffffffff1673ffffffffffffffffffffffffffffffffffffffff168152602001600382015481526020016004820160009054906101000a900460ff16151515158152505090506001151581608001511515146111b9576040517f08c379a00000000000000000000000000000000000000000000000000000000081526004016111b090611eef565b60405180910390fd5b6000600160008a815260200190815260200160002060040160006101000a81548160ff021916908315150217905550878973ffffffffffffffffffffffffffffffffffffffff163373ffffffffffffffffffffffffffffffffffffffff167f9ba1a3cb55ce8d63d072a886f94d2a744f50cddf82128e897d0661f5ec62315860405160405180910390a4505050505050505050565b611256611716565b6000600260003373ffffffffffffffffffffffffffffffffffffffff1673ffffffffffffffffffffffffffffffffffffffff168152602001908152602001600020549050600081116112dd576040517f08c379a00000000000000000000000000000000000000000000000000000000081526004016112d49061200d565b60405180910390fd5b81811015611320576040517f08c379a000000000000000000000000000000000000000000000000000000000815260040161131790612079565b60405180910390fd5b818161132c9190612099565b600260003373ffffffffffffffffffffffffffffffffffffffff1673ffffffffffffffffffffffffffffffffffffffff1681526020019081526020016000208190555060003373ffffffffffffffffffffffffffffffffffffffff1683604051611395906120fe565b60006040518083038185875af1925050503d80600081146113d2576040519150601f19603f3d011682016040523d82523d6000602084013e6113d7565b606091505b505090508061141b576040517f08c379a00000000000000000000000000000000000000000000000000000000081526004016114129061215f565b60405180910390fd5b5050611425611765565b50565b816000600160008381526020019081526020016000206040518060a0016040529081600082015481526020016001820160009054906101000a900473ffffffffffffffffffffffffffffffffffffffff1673ffffffffffffffffffffffffffffffffffffffff1673ffffffffffffffffffffffffffffffffffffffff1681526020016002820160009054906101000a900473ffffffffffffffffffffffffffffffffffffffff1673ffffffffffffffffffffffffffffffffffffffff1673ffffffffffffffffffffffffffffffffffffffff168152602001600382015481526020016004820160009054906101000a900460ff1615151515815250509050600115158160800151151514611571576040517f08c379a000000000000000000000000000000000000000000000000000000000815260040161156890611eef565b60405180910390fd5b848433600083905060008173ffffffffffffffffffffffffffffffffffffffff16636352211e856040518263ffffffff1660e01b81526004016115b4919061198a565b602060405180830381865afa1580156115d1573d6000803e3d6000fd5b505050506040513d601f19601f820116820180604052508101906115f59190611d0c565b90508073ffffffffffffffffffffffffffffffffffffffff168373ffffffffffffffffffffffffffffffffffffffff1614611665576040517f08c379a000000000000000000000000000000000000000000000000000000000815260040161165c90611d85565b60405180910390fd5b87600160008b815260200190815260200160002060030181905550888a73ffffffffffffffffffffffffffffffffffffffff163373ffffffffffffffffffffffffffffffffffffffff167fd547e933094f12a9159076970143ebe73234e64480317844b0dcb36117116de48b6040516116de919061198a565b60405180910390a450505050505050505050565b600081600001549050919050565b6001816000016000828254019250508190555050565b60026000540361175b576040517f08c379a0000000000000000000000000000000000000000000000000000000008152600401611752906121cb565b60405180910390fd5b6002600081905550565b6001600081905550565b6040518060a0016040528060008152602001600073ffffffffffffffffffffffffffffffffffffffff168152602001600073ffffffffffffffffffffffffffffffffffffffff168152602001600081526020016000151581525090565b600080fd5b6000819050919050565b6117e4816117d1565b81146117ef57600080fd5b50565b600081359050611801816117db565b92915050565b60006020828403121561181d5761181c6117cc565b5b600061182b848285016117f2565b91505092915050565b61183d816117d1565b82525050565b600073ffffffffffffffffffffffffffffffffffffffff82169050919050565b600061186e82611843565b9050919050565b61187e81611863565b82525050565b60008115159050919050565b61189981611884565b82525050565b60a0820160008201516118b56000850182611834565b5060208201516118c86020850182611875565b5060408201516118db6040850182611875565b5060608201516118ee6060850182611834565b5060808201516119016080850182611890565b50505050565b600060a08201905061191c600083018461189f565b92915050565b61192b81611863565b811461193657600080fd5b50565b60008135905061194881611922565b92915050565b600060208284031215611964576119636117cc565b5b600061197284828501611939565b91505092915050565b611984816117d1565b82525050565b600060208201905061199f600083018461197b565b92915050565b600081519050919050565b600082825260208201905092915050565b6000819050602082019050919050565b60a0820160008201516119e76000850182611834565b5060208201516119fa6020850182611875565b506040820151611a0d6040850182611875565b506060820151611a206060850182611834565b506080820151611a336080850182611890565b50505050565b6000611a4583836119d1565b60a08301905092915050565b6000602082019050919050565b6000611a69826119a5565b611a7381856119b0565b9350611a7e836119c1565b8060005b83811015611aaf578151611a968882611a39565b9750611aa183611a51565b925050600181019050611a82565b5085935050505092915050565b60006020820190508181036000830152611ad68184611a5e565b905092915050565b600080600060608486031215611af757611af66117cc565b5b6000611b0586828701611939565b9350506020611b16868287016117f2565b9250506040611b27868287016117f2565b9150509250925092565b60008060408385031215611b4857611b476117cc565b5b6000611b5685828601611939565b9250506020611b67858286016117f2565b9150509250929050565b7f4e487b7100000000000000000000000000000000000000000000000000000000600052604160045260246000fd5b7f4e487b7100000000000000000000000000000000000000000000000000000000600052601160045260246000fd5b6000611bda826117d1565b9150611be5836117d1565b9250828201905080821115611bfd57611bfc611ba0565b5b92915050565b7f4e487b7100000000000000000000000000000000000000000000000000000000600052603260045260246000fd5b6000611c3d826117d1565b91507fffffffffffffffffffffffffffffffffffffffffffffffffffffffffffffffff8203611c6f57611c6e611ba0565b5b600182019050919050565b600082825260208201905092915050565b7f4e544620456d6572616c6420616c7265616479206c6973746564000000000000600082015250565b6000611cc1601a83611c7a565b9150611ccc82611c8b565b602082019050919050565b60006020820190508181036000830152611cf081611cb4565b9050919050565b600081519050611d0681611922565b92915050565b600060208284031215611d2257611d216117cc565b5b6000611d3084828501611cf7565b91505092915050565b7f4e6f74206f776e65720000000000000000000000000000000000000000000000600082015250565b6000611d6f600983611c7a565b9150611d7a82611d39565b602082019050919050565b60006020820190508181036000830152611d9e81611d62565b9050919050565b7f5072696365206d7573742062652061626f7665207a65726f0000000000000000600082015250565b6000611ddb601883611c7a565b9150611de682611da5565b602082019050919050565b60006020820190508181036000830152611e0a81611dce565b9050919050565b7f456d6572616c64204e5446206e6f7420617070726f76656420666f72206d617260008201527f6b6574706c616365000000000000000000000000000000000000000000000000602082015250565b6000611e6d602883611c7a565b9150611e7882611e11565b604082019050919050565b60006020820190508181036000830152611e9c81611e60565b9050919050565b7f4e6f74206c697374656400000000000000000000000000000000000000000000600082015250565b6000611ed9600a83611c7a565b9150611ee482611ea3565b602082019050919050565b60006020820190508181036000830152611f0881611ecc565b9050919050565b7f4e544620456d6572616c64207072696365206e6f74206d657400000000000000600082015250565b6000611f45601983611c7a565b9150611f5082611f0f565b602082019050919050565b60006020820190508181036000830152611f7481611f38565b9050919050565b611f8481611863565b82525050565b6000606082019050611f9f6000830186611f7b565b611fac6020830185611f7b565b611fb9604083018461197b565b949350505050565b7f4e6f2070726f636565647320746f207769746864726177000000000000000000600082015250565b6000611ff7601783611c7a565b915061200282611fc1565b602082019050919050565b6000602082019050818103600083015261202681611fea565b9050919050565b7f4e6f7420656e6f7567682070726f636565647320746f20776974686472617700600082015250565b6000612063601f83611c7a565b915061206e8261202d565b602082019050919050565b6000602082019050818103600083015261209281612056565b9050919050565b60006120a4826117d1565b91506120af836117d1565b92508282039050818111156120c7576120c6611ba0565b5b92915050565b600081905092915050565b50565b60006120e86000836120cd565b91506120f3826120d8565b600082019050919050565b6000612109826120db565b9150819050919050565b7f5769746864726177616c206f662070726f6365656473206661696c6564000000600082015250565b6000612149601d83611c7a565b915061215482612113565b602082019050919050565b600060208201905081810360008301526121788161213c565b9050919050565b7f5265656e7472616e637947756172643a207265656e7472616e742063616c6c00600082015250565b60006121b5601f83611c7a565b91506121c08261217f565b602082019050919050565b600060208201905081810360008301526121e4816121a8565b905091905056fea2646970667358221220978cd3537605d970fc2aa647a640c15192a7e14d037e6a23012625e14a1a250764736f6c63430008120033",
  "linkReferences": {},
  "deployedLinkReferences": {}
}