{
  "_format": "hh-sol-artifact-1",
  "contractName": "EmeraldMarket",
  "sourceName": "contracts/EmeraldMarket.sol",
  "abi": [
    {
      "inputs": [],
      "stateMutability": "nonpayable",
      "type": "constructor"
    },
    {
      "anonymous": false,
      "inputs": [
        {
          "indexed": true,
          "internalType": "address",
          "name": "buyer",
          "type": "address"
        },
        {
          "indexed": true,
          "internalType": "address",
          "name": "nftAddress",
          "type": "address"
        },
        {
          "indexed": true,
          "internalType": "uint256",
          "name": "tokenId",
          "type": "uint256"
        },
        {
          "indexed": false,
          "internalType": "uint256",
          "name": "price",
          "type": "uint256"
        }
      ],
      "name": "ItemBought",
      "type": "event"
    },
    {
      "anonymous": false,
      "inputs": [
        {
          "indexed": true,
          "internalType": "address",
          "name": "seller",
          "type": "address"
        },
        {
          "indexed": true,
          "internalType": "address",
          "name": "nftAddress",
          "type": "address"
        },
        {
          "indexed": true,
          "internalType": "uint256",
          "name": "tokenId",
          "type": "uint256"
        }
      ],
      "name": "ItemCanceled",
      "type": "event"
    },
    {
      "anonymous": false,
      "inputs": [
        {
          "indexed": true,
          "internalType": "address",
          "name": "seller",
          "type": "address"
        },
        {
          "indexed": true,
          "internalType": "address",
          "name": "nftAddress",
          "type": "address"
        },
        {
          "indexed": true,
          "internalType": "uint256",
          "name": "tokenId",
          "type": "uint256"
        },
        {
          "indexed": false,
          "internalType": "uint256",
          "name": "price",
          "type": "uint256"
        }
      ],
      "name": "ItemListed",
      "type": "event"
    },
    {
      "inputs": [
        {
          "internalType": "address",
          "name": "nftAddress",
          "type": "address"
        },
        {
          "internalType": "uint256",
          "name": "tokenId",
          "type": "uint256"
        }
      ],
      "name": "buyItem",
      "outputs": [],
      "stateMutability": "payable",
      "type": "function"
    },
    {
      "inputs": [
        {
          "internalType": "address",
          "name": "nftAddress",
          "type": "address"
        },
        {
          "internalType": "uint256",
          "name": "tokenId",
          "type": "uint256"
        }
      ],
      "name": "cancelListing",
      "outputs": [],
      "stateMutability": "nonpayable",
      "type": "function"
    },
    {
      "inputs": [],
      "name": "getAllListing",
      "outputs": [
        {
          "components": [
            {
              "internalType": "uint256",
              "name": "tokenId",
              "type": "uint256"
            },
            {
              "internalType": "address",
              "name": "owner",
              "type": "address"
            },
            {
              "internalType": "address",
              "name": "seller",
              "type": "address"
            },
            {
              "internalType": "uint256",
              "name": "price",
              "type": "uint256"
            },
            {
              "internalType": "bool",
              "name": "currentlyListed",
              "type": "bool"
            },
            {
              "internalType": "bytes32",
              "name": "txHash",
              "type": "bytes32"
            }
          ],
          "internalType": "struct EmeraldMarket.ListedToken[]",
          "name": "",
          "type": "tuple[]"
        }
      ],
      "stateMutability": "view",
      "type": "function"
    },
    {
      "inputs": [
        {
          "internalType": "uint256",
          "name": "tokenId",
          "type": "uint256"
        }
      ],
      "name": "getListing",
      "outputs": [
        {
          "components": [
            {
              "internalType": "uint256",
              "name": "tokenId",
              "type": "uint256"
            },
            {
              "internalType": "address",
              "name": "owner",
              "type": "address"
            },
            {
              "internalType": "address",
              "name": "seller",
              "type": "address"
            },
            {
              "internalType": "uint256",
              "name": "price",
              "type": "uint256"
            },
            {
              "internalType": "bool",
              "name": "currentlyListed",
              "type": "bool"
            },
            {
              "internalType": "bytes32",
              "name": "txHash",
              "type": "bytes32"
            }
          ],
          "internalType": "struct EmeraldMarket.ListedToken",
          "name": "",
          "type": "tuple"
        }
      ],
      "stateMutability": "view",
      "type": "function"
    },
    {
      "inputs": [
        {
          "internalType": "address",
          "name": "seller",
          "type": "address"
        }
      ],
      "name": "getProceeds",
      "outputs": [
        {
          "internalType": "uint256",
          "name": "",
          "type": "uint256"
        }
      ],
      "stateMutability": "view",
      "type": "function"
    },
    {
      "inputs": [
        {
          "internalType": "address",
          "name": "nftAddress",
          "type": "address"
        },
        {
          "internalType": "uint256",
          "name": "tokenId",
          "type": "uint256"
        },
        {
          "internalType": "uint256",
          "name": "price",
          "type": "uint256"
        }
      ],
      "name": "listItem",
      "outputs": [],
      "stateMutability": "nonpayable",
      "type": "function"
    },
    {
      "inputs": [
        {
          "internalType": "address",
          "name": "nftAddress",
          "type": "address"
        },
        {
          "internalType": "uint256",
          "name": "tokenId",
          "type": "uint256"
        },
        {
          "internalType": "uint256",
          "name": "newPrice",
          "type": "uint256"
        }
      ],
      "name": "updateListing",
      "outputs": [],
      "stateMutability": "nonpayable",
      "type": "function"
    },
    {
      "inputs": [
        {
          "internalType": "address",
          "name": "nftAddress",
          "type": "address"
        },
        {
          "internalType": "uint256",
          "name": "tokenId",
          "type": "uint256"
        },
        {
          "internalType": "bytes32",
          "name": "newTxHash",
          "type": "bytes32"
        }
      ],
      "name": "updateMintHash",
      "outputs": [],
      "stateMutability": "nonpayable",
      "type": "function"
    },
    {
      "inputs": [
        {
          "internalType": "uint256",
          "name": "amount",
          "type": "uint256"
        }
      ],
      "name": "withdrawProceeds",
      "outputs": [],
      "stateMutability": "nonpayable",
      "type": "function"
    }
  ],
  "bytecode": "0x608060405234801561001057600080fd5b5060016000819055506124c5806100286000396000f3fe6080604052600436106100865760003560e01c806389bfd38f1161005957806389bfd38f146101595780639f37092a14610182578063b2ddee061461019e578063d9f1aed9146101c7578063f772adf1146101f057610086565b8063107a274a1461008b57806330cfeda9146100c857806339af31cf14610105578063467efe5a1461012e575b600080fd5b34801561009757600080fd5b506100b260048036038101906100ad91906119ed565b610219565b6040516100bf9190611b19565b60405180910390f35b3480156100d457600080fd5b506100ef60048036038101906100ea9190611b60565b61032b565b6040516100fc9190611b9c565b60405180910390f35b34801561011157600080fd5b5061012c60048036038101906101279190611be3565b610374565b005b34801561013a57600080fd5b506101436105b1565b6040516101509190611d60565b60405180910390f35b34801561016557600080fd5b50610180600480360381019061017b9190611d82565b6107ab565b005b61019c60048036038101906101979190611dd5565b610be9565b005b3480156101aa57600080fd5b506101c560048036038101906101c09190611dd5565b611144565b005b3480156101d357600080fd5b506101ee60048036038101906101e991906119ed565b611420565b005b3480156101fc57600080fd5b5061021760048036038101906102129190611d82565b6115fa565b005b61022161194b565b600160008381526020019081526020016000206040518060c0016040529081600082015481526020016001820160009054906101000a900473ffffffffffffffffffffffffffffffffffffffff1673ffffffffffffffffffffffffffffffffffffffff1673ffffffffffffffffffffffffffffffffffffffff1681526020016002820160009054906101000a900473ffffffffffffffffffffffffffffffffffffffff1673ffffffffffffffffffffffffffffffffffffffff1673ffffffffffffffffffffffffffffffffffffffff168152602001600382015481526020016004820160009054906101000a900460ff161515151581526020016005820154815250509050919050565b6000600260008373ffffffffffffffffffffffffffffffffffffffff1673ffffffffffffffffffffffffffffffffffffffff168152602001908152602001600020549050919050565b828233600083905060008173ffffffffffffffffffffffffffffffffffffffff16636352211e856040518263ffffffff1660e01b81526004016103b79190611b9c565b602060405180830381865afa1580156103d4573d6000803e3d6000fd5b505050506040513d601f19601f820116820180604052508101906103f89190611e2a565b90508073ffffffffffffffffffffffffffffffffffffffff168373ffffffffffffffffffffffffffffffffffffffff1614610468576040517f08c379a000000000000000000000000000000000000000000000000000000000815260040161045f90611eb4565b60405180910390fd5b6040518060c001604052808881526020013073ffffffffffffffffffffffffffffffffffffffff1681526020013373ffffffffffffffffffffffffffffffffffffffff1681526020016000815260200160001515815260200187815250600160008981526020019081526020016000206000820151816000015560208201518160010160006101000a81548173ffffffffffffffffffffffffffffffffffffffff021916908373ffffffffffffffffffffffffffffffffffffffff16021790555060408201518160020160006101000a81548173ffffffffffffffffffffffffffffffffffffffff021916908373ffffffffffffffffffffffffffffffffffffffff1602179055506060820151816003015560808201518160040160006101000a81548160ff02191690831515021790555060a082015181600501559050505050505050505050565b606060006105bf60036118ce565b905060008167ffffffffffffffff8111156105dd576105dc611ed4565b5b60405190808252806020026020018201604052801561061657816020015b61060361194b565b8152602001906001900390816105fb5790505b50905060008080600090505b848110156107a0576001816106379190611f32565b91506000600160008481526020019081526020016000209050600115158160040160009054906101000a900460ff1615150361077d57806040518060c0016040529081600082015481526020016001820160009054906101000a900473ffffffffffffffffffffffffffffffffffffffff1673ffffffffffffffffffffffffffffffffffffffff1673ffffffffffffffffffffffffffffffffffffffff1681526020016002820160009054906101000a900473ffffffffffffffffffffffffffffffffffffffff1673ffffffffffffffffffffffffffffffffffffffff1673ffffffffffffffffffffffffffffffffffffffff168152602001600382015481526020016004820160009054906101000a900460ff1615151515815260200160058201548152505085858151811061077157610770611f66565b5b60200260200101819052505b60018461078a9190611f32565b935050808061079890611f95565b915050610622565b508294505050505090565b81336000600160008481526020019081526020016000206040518060c0016040529081600082015481526020016001820160009054906101000a900473ffffffffffffffffffffffffffffffffffffffff1673ffffffffffffffffffffffffffffffffffffffff1673ffffffffffffffffffffffffffffffffffffffff1681526020016002820160009054906101000a900473ffffffffffffffffffffffffffffffffffffffff1673ffffffffffffffffffffffffffffffffffffffff1673ffffffffffffffffffffffffffffffffffffffff168152602001600382015481526020016004820160009054906101000a900460ff1615151515815260200160058201548152505090506000151581608001511515146108ff576040517f08c379a00000000000000000000000000000000000000000000000000000000081526004016108f690612029565b60405180910390fd5b858533600083905060008173ffffffffffffffffffffffffffffffffffffffff16636352211e856040518263ffffffff1660e01b81526004016109429190611b9c565b602060405180830381865afa15801561095f573d6000803e3d6000fd5b505050506040513d601f19601f820116820180604052508101906109839190611e2a565b90508073ffffffffffffffffffffffffffffffffffffffff168373ffffffffffffffffffffffffffffffffffffffff16146109f3576040517f08c379a00000000000000000000000000000000000000000000000000000000081526004016109ea90611eb4565b60405180910390fd5b60008911610a36576040517f08c379a0000000000000000000000000000000000000000000000000000000008152600401610a2d90612095565b60405180910390fd5b60008b90503073ffffffffffffffffffffffffffffffffffffffff168173ffffffffffffffffffffffffffffffffffffffff1663081812fc8d6040518263ffffffff1660e01b8152600401610a8b9190611b9c565b602060405180830381865afa158015610aa8573d6000803e3d6000fd5b505050506040513d601f19601f82011682018060405250810190610acc9190611e2a565b73ffffffffffffffffffffffffffffffffffffffff1614610b22576040517f08c379a0000000000000000000000000000000000000000000000000000000008152600401610b1990612127565b60405180910390fd5b89600160008d81526020019081526020016000206003018190555060018060008d815260200190815260200160002060040160006101000a81548160ff021916908315150217905550610b7560036118dc565b8a8c73ffffffffffffffffffffffffffffffffffffffff163373ffffffffffffffffffffffffffffffffffffffff167fd547e933094f12a9159076970143ebe73234e64480317844b0dcb36117116de48d604051610bd39190611b9c565b60405180910390a4505050505050505050505050565b610bf16118f2565b806000600160008381526020019081526020016000206040518060c0016040529081600082015481526020016001820160009054906101000a900473ffffffffffffffffffffffffffffffffffffffff1673ffffffffffffffffffffffffffffffffffffffff1673ffffffffffffffffffffffffffffffffffffffff1681526020016002820160009054906101000a900473ffffffffffffffffffffffffffffffffffffffff1673ffffffffffffffffffffffffffffffffffffffff1673ffffffffffffffffffffffffffffffffffffffff168152602001600382015481526020016004820160009054906101000a900460ff161515151581526020016005820154815250509050600115158160800151151514610d44576040517f08c379a0000000000000000000000000000000000000000000000000000000008152600401610d3b90612193565b60405180910390fd5b6000600160008581526020019081526020016000206040518060c0016040529081600082015481526020016001820160009054906101000a900473ffffffffffffffffffffffffffffffffffffffff1673ffffffffffffffffffffffffffffffffffffffff1673ffffffffffffffffffffffffffffffffffffffff1681526020016002820160009054906101000a900473ffffffffffffffffffffffffffffffffffffffff1673ffffffffffffffffffffffffffffffffffffffff1673ffffffffffffffffffffffffffffffffffffffff168152602001600382015481526020016004820160009054906101000a900460ff1615151515815260200160058201548152505090508060600151341015610e92576040517f08c379a0000000000000000000000000000000000000000000000000000000008152600401610e89906121ff565b60405180910390fd5b3460026000836040015173ffffffffffffffffffffffffffffffffffffffff1673ffffffffffffffffffffffffffffffffffffffff16815260200190815260200160002054610ee19190611f32565b60026000836040015173ffffffffffffffffffffffffffffffffffffffff1673ffffffffffffffffffffffffffffffffffffffff16815260200190815260200160002081905550600081608001901515908115158152505033816040019073ffffffffffffffffffffffffffffffffffffffff16908173ffffffffffffffffffffffffffffffffffffffff16815250508060016000836000015181526020019081526020016000206000820151816000015560208201518160010160006101000a81548173ffffffffffffffffffffffffffffffffffffffff021916908373ffffffffffffffffffffffffffffffffffffffff16021790555060408201518160020160006101000a81548173ffffffffffffffffffffffffffffffffffffffff021916908373ffffffffffffffffffffffffffffffffffffffff1602179055506060820151816003015560808201518160040160006101000a81548160ff02191690831515021790555060a082015181600501559050508473ffffffffffffffffffffffffffffffffffffffff166342842e0e826040015133876040518463ffffffff1660e01b81526004016110999392919061222e565b600060405180830381600087803b1580156110b357600080fd5b505af11580156110c7573d6000803e3d6000fd5b50505050838573ffffffffffffffffffffffffffffffffffffffff163373ffffffffffffffffffffffffffffffffffffffff167f263223b1dd81e51054a4e6f791d45a4a1ddb4aadcd93a2dfd892615c3fdac187846060015160405161112d9190611b9c565b60405180910390a4505050611140611941565b5050565b818133600083905060008173ffffffffffffffffffffffffffffffffffffffff16636352211e856040518263ffffffff1660e01b81526004016111879190611b9c565b602060405180830381865afa1580156111a4573d6000803e3d6000fd5b505050506040513d601f19601f820116820180604052508101906111c89190611e2a565b90508073ffffffffffffffffffffffffffffffffffffffff168373ffffffffffffffffffffffffffffffffffffffff1614611238576040517f08c379a000000000000000000000000000000000000000000000000000000000815260040161122f90611eb4565b60405180910390fd5b856000600160008381526020019081526020016000206040518060c0016040529081600082015481526020016001820160009054906101000a900473ffffffffffffffffffffffffffffffffffffffff1673ffffffffffffffffffffffffffffffffffffffff1673ffffffffffffffffffffffffffffffffffffffff1681526020016002820160009054906101000a900473ffffffffffffffffffffffffffffffffffffffff1673ffffffffffffffffffffffffffffffffffffffff1673ffffffffffffffffffffffffffffffffffffffff168152602001600382015481526020016004820160009054906101000a900460ff16151515158152602001600582015481525050905060011515816080015115151461138b576040517f08c379a000000000000000000000000000000000000000000000000000000000815260040161138290612193565b60405180910390fd5b6000600160008a815260200190815260200160002060040160006101000a81548160ff021916908315150217905550878973ffffffffffffffffffffffffffffffffffffffff163373ffffffffffffffffffffffffffffffffffffffff167f9ba1a3cb55ce8d63d072a886f94d2a744f50cddf82128e897d0661f5ec62315860405160405180910390a4505050505050505050565b6114286118f2565b6000600260003373ffffffffffffffffffffffffffffffffffffffff1673ffffffffffffffffffffffffffffffffffffffff168152602001908152602001600020549050600081116114af576040517f08c379a00000000000000000000000000000000000000000000000000000000081526004016114a6906122b1565b60405180910390fd5b818110156114f2576040517f08c379a00000000000000000000000000000000000000000000000000000000081526004016114e99061231d565b60405180910390fd5b81816114fe919061233d565b600260003373ffffffffffffffffffffffffffffffffffffffff1673ffffffffffffffffffffffffffffffffffffffff1681526020019081526020016000208190555060003373ffffffffffffffffffffffffffffffffffffffff1683604051611567906123a2565b60006040518083038185875af1925050503d80600081146115a4576040519150601f19603f3d011682016040523d82523d6000602084013e6115a9565b606091505b50509050806115ed576040517f08c379a00000000000000000000000000000000000000000000000000000000081526004016115e490612403565b60405180910390fd5b50506115f7611941565b50565b816000600160008381526020019081526020016000206040518060c0016040529081600082015481526020016001820160009054906101000a900473ffffffffffffffffffffffffffffffffffffffff1673ffffffffffffffffffffffffffffffffffffffff1673ffffffffffffffffffffffffffffffffffffffff1681526020016002820160009054906101000a900473ffffffffffffffffffffffffffffffffffffffff1673ffffffffffffffffffffffffffffffffffffffff1673ffffffffffffffffffffffffffffffffffffffff168152602001600382015481526020016004820160009054906101000a900460ff16151515158152602001600582015481525050905060011515816080015115151461174d576040517f08c379a000000000000000000000000000000000000000000000000000000000815260040161174490612193565b60405180910390fd5b848433600083905060008173ffffffffffffffffffffffffffffffffffffffff16636352211e856040518263ffffffff1660e01b81526004016117909190611b9c565b602060405180830381865afa1580156117ad573d6000803e3d6000fd5b505050506040513d601f19601f820116820180604052508101906117d19190611e2a565b90508073ffffffffffffffffffffffffffffffffffffffff168373ffffffffffffffffffffffffffffffffffffffff1614611841576040517f08c379a000000000000000000000000000000000000000000000000000000000815260040161183890611eb4565b60405180910390fd5b87600160008b815260200190815260200160002060030181905550888a73ffffffffffffffffffffffffffffffffffffffff163373ffffffffffffffffffffffffffffffffffffffff167fd547e933094f12a9159076970143ebe73234e64480317844b0dcb36117116de48b6040516118ba9190611b9c565b60405180910390a450505050505050505050565b600081600001549050919050565b6001816000016000828254019250508190555050565b600260005403611937576040517f08c379a000000000000000000000000000000000000000000000000000000000815260040161192e9061246f565b60405180910390fd5b6002600081905550565b6001600081905550565b6040518060c0016040528060008152602001600073ffffffffffffffffffffffffffffffffffffffff168152602001600073ffffffffffffffffffffffffffffffffffffffff16815260200160008152602001600015158152602001600080191681525090565b600080fd5b6000819050919050565b6119ca816119b7565b81146119d557600080fd5b50565b6000813590506119e7816119c1565b92915050565b600060208284031215611a0357611a026119b2565b5b6000611a11848285016119d8565b91505092915050565b611a23816119b7565b82525050565b600073ffffffffffffffffffffffffffffffffffffffff82169050919050565b6000611a5482611a29565b9050919050565b611a6481611a49565b82525050565b60008115159050919050565b611a7f81611a6a565b82525050565b6000819050919050565b611a9881611a85565b82525050565b60c082016000820151611ab46000850182611a1a565b506020820151611ac76020850182611a5b565b506040820151611ada6040850182611a5b565b506060820151611aed6060850182611a1a565b506080820151611b006080850182611a76565b5060a0820151611b1360a0850182611a8f565b50505050565b600060c082019050611b2e6000830184611a9e565b92915050565b611b3d81611a49565b8114611b4857600080fd5b50565b600081359050611b5a81611b34565b92915050565b600060208284031215611b7657611b756119b2565b5b6000611b8484828501611b4b565b91505092915050565b611b96816119b7565b82525050565b6000602082019050611bb16000830184611b8d565b92915050565b611bc081611a85565b8114611bcb57600080fd5b50565b600081359050611bdd81611bb7565b92915050565b600080600060608486031215611bfc57611bfb6119b2565b5b6000611c0a86828701611b4b565b9350506020611c1b868287016119d8565b9250506040611c2c86828701611bce565b9150509250925092565b600081519050919050565b600082825260208201905092915050565b6000819050602082019050919050565b60c082016000820151611c786000850182611a1a565b506020820151611c8b6020850182611a5b565b506040820151611c9e6040850182611a5b565b506060820151611cb16060850182611a1a565b506080820151611cc46080850182611a76565b5060a0820151611cd760a0850182611a8f565b50505050565b6000611ce98383611c62565b60c08301905092915050565b6000602082019050919050565b6000611d0d82611c36565b611d178185611c41565b9350611d2283611c52565b8060005b83811015611d53578151611d3a8882611cdd565b9750611d4583611cf5565b925050600181019050611d26565b5085935050505092915050565b60006020820190508181036000830152611d7a8184611d02565b905092915050565b600080600060608486031215611d9b57611d9a6119b2565b5b6000611da986828701611b4b565b9350506020611dba868287016119d8565b9250506040611dcb868287016119d8565b9150509250925092565b60008060408385031215611dec57611deb6119b2565b5b6000611dfa85828601611b4b565b9250506020611e0b858286016119d8565b9150509250929050565b600081519050611e2481611b34565b92915050565b600060208284031215611e4057611e3f6119b2565b5b6000611e4e84828501611e15565b91505092915050565b600082825260208201905092915050565b7f4e6f74206f776e65720000000000000000000000000000000000000000000000600082015250565b6000611e9e600983611e57565b9150611ea982611e68565b602082019050919050565b60006020820190508181036000830152611ecd81611e91565b9050919050565b7f4e487b7100000000000000000000000000000000000000000000000000000000600052604160045260246000fd5b7f4e487b7100000000000000000000000000000000000000000000000000000000600052601160045260246000fd5b6000611f3d826119b7565b9150611f48836119b7565b9250828201905080821115611f6057611f5f611f03565b5b92915050565b7f4e487b7100000000000000000000000000000000000000000000000000000000600052603260045260246000fd5b6000611fa0826119b7565b91507fffffffffffffffffffffffffffffffffffffffffffffffffffffffffffffffff8203611fd257611fd1611f03565b5b600182019050919050565b7f4e544620456d6572616c6420616c7265616479206c6973746564000000000000600082015250565b6000612013601a83611e57565b915061201e82611fdd565b602082019050919050565b6000602082019050818103600083015261204281612006565b9050919050565b7f5072696365206d7573742062652061626f7665207a65726f0000000000000000600082015250565b600061207f601883611e57565b915061208a82612049565b602082019050919050565b600060208201905081810360008301526120ae81612072565b9050919050565b7f456d6572616c64204e5446206e6f7420617070726f76656420666f72206d617260008201527f6b6574706c616365000000000000000000000000000000000000000000000000602082015250565b6000612111602883611e57565b915061211c826120b5565b604082019050919050565b6000602082019050818103600083015261214081612104565b9050919050565b7f4e6f74206c697374656400000000000000000000000000000000000000000000600082015250565b600061217d600a83611e57565b915061218882612147565b602082019050919050565b600060208201905081810360008301526121ac81612170565b9050919050565b7f4e544620456d6572616c64207072696365206e6f74206d657400000000000000600082015250565b60006121e9601983611e57565b91506121f4826121b3565b602082019050919050565b60006020820190508181036000830152612218816121dc565b9050919050565b61222881611a49565b82525050565b6000606082019050612243600083018661221f565b612250602083018561221f565b61225d6040830184611b8d565b949350505050565b7f4e6f2070726f636565647320746f207769746864726177000000000000000000600082015250565b600061229b601783611e57565b91506122a682612265565b602082019050919050565b600060208201905081810360008301526122ca8161228e565b9050919050565b7f4e6f7420656e6f7567682070726f636565647320746f20776974686472617700600082015250565b6000612307601f83611e57565b9150612312826122d1565b602082019050919050565b60006020820190508181036000830152612336816122fa565b9050919050565b6000612348826119b7565b9150612353836119b7565b925082820390508181111561236b5761236a611f03565b5b92915050565b600081905092915050565b50565b600061238c600083612371565b91506123978261237c565b600082019050919050565b60006123ad8261237f565b9150819050919050565b7f5769746864726177616c206f662070726f6365656473206661696c6564000000600082015250565b60006123ed601d83611e57565b91506123f8826123b7565b602082019050919050565b6000602082019050818103600083015261241c816123e0565b9050919050565b7f5265656e7472616e637947756172643a207265656e7472616e742063616c6c00600082015250565b6000612459601f83611e57565b915061246482612423565b602082019050919050565b600060208201905081810360008301526124888161244c565b905091905056fea2646970667358221220e07d6e9177436db909399580aee763322bd5f7444648853ef19146bc671db59f64736f6c63430008120033",
  "linkReferences": {},
  "deployedLinkReferences": {}
}